{
  "_format": "hh-sol-artifact-1",
  "contractName": "GreetMe",
  "sourceName": "contracts/GreetMe.sol",
  "abi": [
    {
      "inputs": [],
      "stateMutability": "nonpayable",
      "type": "constructor"
    },
    {
      "anonymous": false,
      "inputs": [
        {
          "indexed": true,
          "internalType": "address",
          "name": "greeter",
          "type": "address"
        },
        {
          "indexed": false,
          "internalType": "string",
          "name": "greeting",
          "type": "string"
        },
        {
          "indexed": false,
          "internalType": "uint256",
          "name": "timestamp",
          "type": "uint256"
        }
      ],
      "name": "Greet",
      "type": "event"
    },
    {
      "inputs": [
        {
          "internalType": "uint256",
          "name": "_numOfMessagesNeeded",
          "type": "uint256"
        }
      ],
      "name": "getGreetings",
      "outputs": [
        {
          "internalType": "string[]",
          "name": "",
          "type": "string[]"
        },
        {
          "internalType": "address[]",
          "name": "",
          "type": "address[]"
        },
        {
          "internalType": "uint256[]",
          "name": "",
          "type": "uint256[]"
        }
      ],
      "stateMutability": "view",
      "type": "function"
    },
    {
      "inputs": [],
      "name": "getNumOfGreetings",
      "outputs": [
        {
          "internalType": "uint256",
          "name": "",
          "type": "uint256"
        }
      ],
      "stateMutability": "view",
      "type": "function"
    },
    {
      "inputs": [
        {
          "internalType": "string",
          "name": "greetingMsg",
          "type": "string"
        }
      ],
      "name": "greet",
      "outputs": [],
      "stateMutability": "nonpayable",
      "type": "function"
    }
  ],
  "bytecode": "0x60806040523480156200001157600080fd5b506200005d6040518060400160405280600e81526020017f47726565744d65207265616479210000000000000000000000000000000000008152506200006360201b620007e01760201c565b620001f7565b62000103816040516024016200007a919062000170565b6040516020818303038152906040527f41304fac000000000000000000000000000000000000000000000000000000007bffffffffffffffffffffffffffffffffffffffffffffffffffffffff19166020820180517bffffffffffffffffffffffffffffffffffffffffffffffffffffffff83818316178352505050506200010660201b60201c565b50565b60008151905060006a636f6e736f6c652e6c6f679050602083016000808483855afa5050505050565b60006200013c8262000194565b6200014881856200019f565b93506200015a818560208601620001b0565b6200016581620001e6565b840191505092915050565b600060208201905081810360008301526200018c81846200012f565b905092915050565b600081519050919050565b600082825260208201905092915050565b60005b83811015620001d0578082015181840152602081019050620001b3565b83811115620001e0576000848401525b50505050565b6000601f19601f8301169050919050565b6110c680620002076000396000f3fe608060405234801561001057600080fd5b50600436106100415760003560e01c80630133799614610046578063ead710c414610078578063ef25559614610094575b600080fd5b610060600480360381019061005b9190610a03565b6100b2565b60405161006f93929190610c40565b60405180910390f35b610092600480360381019061008d91906109c2565b6106b9565b005b61009c6107d4565b6040516100a99190610cde565b60405180910390f35b606080606060006100c16107d4565b905060008514806100d157508085115b156102955760006001600282805480602002602001604051908101604052809291908181526020016000905b828210156101a957838290600052602060002001805461011c90610f2f565b80601f016020809104026020016040519081016040528092919081815260200182805461014890610f2f565b80156101955780601f1061016a57610100808354040283529160200191610195565b820191906000526020600020905b81548152906001019060200180831161017857829003601f168201915b5050505050815260200190600101906100fd565b5050505092508180548060200260200160405190810160405280929190818152602001828054801561023057602002820191906000526020600020905b8160009054906101000a900473ffffffffffffffffffffffffffffffffffffffff1673ffffffffffffffffffffffffffffffffffffffff16815260200190600101908083116101e6575b505050505091508080548060200260200160405190810160405280929190818152602001828054801561028257602002820191906000526020600020905b81548152602001906001019080831161026e575b50505050509050935093509350506106b2565b60008567ffffffffffffffff8111156102d7577f4e487b7100000000000000000000000000000000000000000000000000000000600052604160045260246000fd5b60405190808252806020026020018201604052801561030a57816020015b60608152602001906001900390816102f55790505b50905060008667ffffffffffffffff81111561034f577f4e487b7100000000000000000000000000000000000000000000000000000000600052604160045260246000fd5b60405190808252806020026020018201604052801561037d5781602001602082028036833780820191505090505b50905060008767ffffffffffffffff8111156103c2577f4e487b7100000000000000000000000000000000000000000000000000000000600052604160045260246000fd5b6040519080825280602002602001820160405280156103f05781602001602082028036833780820191505090505b50905060008089866104029190610e7d565b90505b858110156106a25760008181548110610447577f4e487b7100000000000000000000000000000000000000000000000000000000600052603260045260246000fd5b90600052602060002001805461045c90610f2f565b80601f016020809104026020016040519081016040528092919081815260200182805461048890610f2f565b80156104d55780601f106104aa576101008083540402835291602001916104d5565b820191906000526020600020905b8154815290600101906020018083116104b857829003601f168201915b5050505050858381518110610513577f4e487b7100000000000000000000000000000000000000000000000000000000600052603260045260246000fd5b602002602001018190525060018181548110610558577f4e487b7100000000000000000000000000000000000000000000000000000000600052603260045260246000fd5b9060005260206000200160009054906101000a900473ffffffffffffffffffffffffffffffffffffffff168483815181106105bc577f4e487b7100000000000000000000000000000000000000000000000000000000600052603260045260246000fd5b602002602001019073ffffffffffffffffffffffffffffffffffffffff16908173ffffffffffffffffffffffffffffffffffffffff168152505060028181548110610630577f4e487b7100000000000000000000000000000000000000000000000000000000600052603260045260246000fd5b9060005260206000200154838381518110610674577f4e487b7100000000000000000000000000000000000000000000000000000000600052603260045260246000fd5b60200260200101818152505060018261068d9190610e27565b9150808061069a90610f92565b915050610405565b5083838397509750975050505050505b9193909250565b6000819080600181540180825580915050600190039060005260206000200160009091909190915090805190602001906106f49291906108a2565b506001339080600181540180825580915050600190039060005260206000200160009091909190916101000a81548173ffffffffffffffffffffffffffffffffffffffff021916908373ffffffffffffffffffffffffffffffffffffffff16021790555060024290806001815401808255809150506001900390600052602060002001600090919091909150553373ffffffffffffffffffffffffffffffffffffffff167f3644703a9df814f77485213439ee92c8b09d9cd6ac40c646ca6a63da92a343ad82426040516107c9929190610cae565b60405180910390a250565b60008080549050905090565b610876816040516024016107f49190610c8c565b6040516020818303038152906040527f41304fac000000000000000000000000000000000000000000000000000000007bffffffffffffffffffffffffffffffffffffffffffffffffffffffff19166020820180517bffffffffffffffffffffffffffffffffffffffffffffffffffffffff8381831617835250505050610879565b50565b60008151905060006a636f6e736f6c652e6c6f679050602083016000808483855afa5050505050565b8280546108ae90610f2f565b90600052602060002090601f0160209004810192826108d05760008555610917565b82601f106108e957805160ff1916838001178555610917565b82800160010185558215610917579182015b828111156109165782518255916020019190600101906108fb565b5b5090506109249190610928565b5090565b5b80821115610941576000816000905550600101610929565b5090565b600061095861095384610d1e565b610cf9565b90508281526020810184848401111561097057600080fd5b61097b848285610eed565b509392505050565b600082601f83011261099457600080fd5b81356109a4848260208601610945565b91505092915050565b6000813590506109bc81611079565b92915050565b6000602082840312156109d457600080fd5b600082013567ffffffffffffffff8111156109ee57600080fd5b6109fa84828501610983565b91505092915050565b600060208284031215610a1557600080fd5b6000610a23848285016109ad565b91505092915050565b6000610a388383610a70565b60208301905092915050565b6000610a508383610bb0565b905092915050565b6000610a648383610c22565b60208301905092915050565b610a7981610eb1565b82525050565b6000610a8a82610d7f565b610a948185610dd2565b9350610a9f83610d4f565b8060005b83811015610ad0578151610ab78882610a2c565b9750610ac283610dab565b925050600181019050610aa3565b5085935050505092915050565b6000610ae882610d8a565b610af28185610de3565b935083602082028501610b0485610d5f565b8060005b85811015610b405784840389528151610b218582610a44565b9450610b2c83610db8565b925060208a01995050600181019050610b08565b50829750879550505050505092915050565b6000610b5d82610d95565b610b678185610df4565b9350610b7283610d6f565b8060005b83811015610ba3578151610b8a8882610a58565b9750610b9583610dc5565b925050600181019050610b76565b5085935050505092915050565b6000610bbb82610da0565b610bc58185610e05565b9350610bd5818560208601610efc565b610bde81611068565b840191505092915050565b6000610bf482610da0565b610bfe8185610e16565b9350610c0e818560208601610efc565b610c1781611068565b840191505092915050565b610c2b81610ee3565b82525050565b610c3a81610ee3565b82525050565b60006060820190508181036000830152610c5a8186610add565b90508181036020830152610c6e8185610a7f565b90508181036040830152610c828184610b52565b9050949350505050565b60006020820190508181036000830152610ca68184610be9565b905092915050565b60006040820190508181036000830152610cc88185610be9565b9050610cd76020830184610c31565b9392505050565b6000602082019050610cf36000830184610c31565b92915050565b6000610d03610d14565b9050610d0f8282610f61565b919050565b6000604051905090565b600067ffffffffffffffff821115610d3957610d38611039565b5b610d4282611068565b9050602081019050919050565b6000819050602082019050919050565b6000819050602082019050919050565b6000819050602082019050919050565b600081519050919050565b600081519050919050565b600081519050919050565b600081519050919050565b6000602082019050919050565b6000602082019050919050565b6000602082019050919050565b600082825260208201905092915050565b600082825260208201905092915050565b600082825260208201905092915050565b600082825260208201905092915050565b600082825260208201905092915050565b6000610e3282610ee3565b9150610e3d83610ee3565b9250827fffffffffffffffffffffffffffffffffffffffffffffffffffffffffffffffff03821115610e7257610e71610fdb565b5b828201905092915050565b6000610e8882610ee3565b9150610e9383610ee3565b925082821015610ea657610ea5610fdb565b5b828203905092915050565b6000610ebc82610ec3565b9050919050565b600073ffffffffffffffffffffffffffffffffffffffff82169050919050565b6000819050919050565b82818337600083830152505050565b60005b83811015610f1a578082015181840152602081019050610eff565b83811115610f29576000848401525b50505050565b60006002820490506001821680610f4757607f821691505b60208210811415610f5b57610f5a61100a565b5b50919050565b610f6a82611068565b810181811067ffffffffffffffff82111715610f8957610f88611039565b5b80604052505050565b6000610f9d82610ee3565b91507fffffffffffffffffffffffffffffffffffffffffffffffffffffffffffffffff821415610fd057610fcf610fdb565b5b600182019050919050565b7f4e487b7100000000000000000000000000000000000000000000000000000000600052601160045260246000fd5b7f4e487b7100000000000000000000000000000000000000000000000000000000600052602260045260246000fd5b7f4e487b7100000000000000000000000000000000000000000000000000000000600052604160045260246000fd5b6000601f19601f8301169050919050565b61108281610ee3565b811461108d57600080fd5b5056fea26469706673582212203e69fa411588fa7ad310735a92f66b108a0900a5246e6b7a9df295159cb5cfa964736f6c63430008040033",
  "linkReferences": {},
  "deployedLinkReferences": {}
}