{
  "_format": "hh-sol-artifact-1",
  "contractName": "GreetMe",
  "sourceName": "contracts/GreetMe.sol",
  "abi": [
    {
      "inputs": [
        {
          "internalType": "uint256",
          "name": "_initialSeed",
          "type": "uint256"
        },
        {
          "internalType": "uint256",
          "name": "_amountToWin",
          "type": "uint256"
        },
        {
          "internalType": "uint24",
          "name": "_cooldownPeriod",
          "type": "uint24"
        },
        {
          "internalType": "uint8",
          "name": "_probabilityOfWinning",
          "type": "uint8"
        }
      ],
      "stateMutability": "payable",
      "type": "constructor"
    },
    {
      "anonymous": false,
      "inputs": [],
      "name": "CooldownPeriodNotOver",
      "type": "event"
    },
    {
      "anonymous": false,
      "inputs": [
        {
          "indexed": true,
          "internalType": "uint256",
          "name": "id",
          "type": "uint256"
        },
        {
          "indexed": true,
          "internalType": "address",
          "name": "greeter",
          "type": "address"
        },
        {
          "indexed": false,
          "internalType": "string",
          "name": "greeting",
          "type": "string"
        },
        {
          "indexed": false,
          "internalType": "uint256",
          "name": "timestamp",
          "type": "uint256"
        }
      ],
      "name": "Greet",
      "type": "event"
    },
    {
      "anonymous": false,
      "inputs": [],
      "name": "OutOfBalance",
      "type": "event"
    },
    {
      "anonymous": false,
      "inputs": [
        {
          "indexed": false,
          "internalType": "address",
          "name": "winnerAddress",
          "type": "address"
        },
        {
          "indexed": false,
          "internalType": "uint256",
          "name": "amountWon",
          "type": "uint256"
        }
      ],
      "name": "Winner",
      "type": "event"
    },
    {
      "inputs": [],
      "name": "amountToWin",
      "outputs": [
        {
          "internalType": "uint256",
          "name": "",
          "type": "uint256"
        }
      ],
      "stateMutability": "view",
      "type": "function"
    },
    {
      "inputs": [],
      "name": "cooldownPeriod",
      "outputs": [
        {
          "internalType": "uint24",
          "name": "",
          "type": "uint24"
        }
      ],
      "stateMutability": "view",
      "type": "function"
    },
    {
      "inputs": [
        {
          "internalType": "uint256",
          "name": "_pageNum",
          "type": "uint256"
        },
        {
          "internalType": "uint256",
          "name": "_pageSize",
          "type": "uint256"
        }
      ],
      "name": "getGreetings",
      "outputs": [
        {
          "internalType": "uint256[]",
          "name": "",
          "type": "uint256[]"
        },
        {
          "components": [
            {
              "internalType": "string",
              "name": "greeting",
              "type": "string"
            },
            {
              "internalType": "address",
              "name": "greeter",
              "type": "address"
            },
            {
              "internalType": "uint256",
              "name": "timestamp",
              "type": "uint256"
            }
          ],
          "internalType": "struct GreetMe.Greeting[]",
          "name": "",
          "type": "tuple[]"
        }
      ],
      "stateMutability": "view",
      "type": "function"
    },
    {
      "inputs": [],
      "name": "getNumOfGreetings",
      "outputs": [
        {
          "internalType": "uint256",
          "name": "",
          "type": "uint256"
        }
      ],
      "stateMutability": "view",
      "type": "function"
    },
    {
      "inputs": [],
      "name": "getSeed",
      "outputs": [
        {
          "internalType": "uint8",
          "name": "",
          "type": "uint8"
        }
      ],
      "stateMutability": "view",
      "type": "function"
    },
    {
      "inputs": [
        {
          "internalType": "string",
          "name": "_greetingMsg",
          "type": "string"
        }
      ],
      "name": "greet",
      "outputs": [],
      "stateMutability": "nonpayable",
      "type": "function"
    },
    {
      "inputs": [],
      "name": "probabilityOfWinning",
      "outputs": [
        {
          "internalType": "uint8",
          "name": "",
          "type": "uint8"
        }
      ],
      "stateMutability": "view",
      "type": "function"
    }
  ],
  "bytecode": "0x608060405260405162001c0b38038062001c0b83398181016040528101906200002991906200025a565b60654442866200003a919062000347565b62000046919062000347565b62000052919062000400565b600160006101000a81548160ff021916908360ff1602179055508260038190555081600460006101000a81548162ffffff021916908362ffffff16021790555080600460036101000a81548160ff021916908360ff16021790555042600281905550336004806101000a81548173ffffffffffffffffffffffffffffffffffffffff021916908373ffffffffffffffffffffffffffffffffffffffff1602179055506200013f6040518060400160405280601281526020017f5b2b5d2047726565744d652072656164792100000000000000000000000000008152506200014960201b62000a3b1760201c565b50505050620004f5565b620001e98160405160240162000160919062000307565b6040516020818303038152906040527f41304fac000000000000000000000000000000000000000000000000000000007bffffffffffffffffffffffffffffffffffffffffffffffffffffffff19166020820180517bffffffffffffffffffffffffffffffffffffffffffffffffffffffff8381831617835250505050620001ec60201b60201c565b50565b60008151905060006a636f6e736f6c652e6c6f679050602083016000808483855afa5050505050565b6000815190506200022681620004a7565b92915050565b6000815190506200023d81620004c1565b92915050565b6000815190506200025481620004db565b92915050565b600080600080608085870312156200027157600080fd5b600062000281878288016200022c565b945050602062000294878288016200022c565b9350506040620002a78782880162000215565b9250506060620002ba8782880162000243565b91505092959194509250565b6000620002d3826200032b565b620002df818562000336565b9350620002f1818560208601620003ca565b620002fc8162000496565b840191505092915050565b60006020820190508181036000830152620003238184620002c6565b905092915050565b600081519050919050565b600082825260208201905092915050565b60006200035482620003b3565b91506200036183620003b3565b9250827fffffffffffffffffffffffffffffffffffffffffffffffffffffffffffffffff0382111562000399576200039862000438565b5b828201905092915050565b600062ffffff82169050919050565b6000819050919050565b600060ff82169050919050565b60005b83811015620003ea578082015181840152602081019050620003cd565b83811115620003fa576000848401525b50505050565b60006200040d82620003b3565b91506200041a83620003b3565b9250826200042d576200042c62000467565b5b828206905092915050565b7f4e487b7100000000000000000000000000000000000000000000000000000000600052601160045260246000fd5b7f4e487b7100000000000000000000000000000000000000000000000000000000600052601260045260246000fd5b6000601f19601f8301169050919050565b620004b281620003a4565b8114620004be57600080fd5b50565b620004cc81620003b3565b8114620004d857600080fd5b50565b620004e681620003bd565b8114620004f257600080fd5b50565b61170680620005056000396000f3fe608060405234801561001057600080fd5b506004361061007d5760003560e01c806398a7189b1161005b57806398a7189b146100ef578063a002dc9c1461010d578063ead710c41461012b578063ef255596146101475761007d565b806304646a49146100825780631145cdbe146100a057806339e7357c146100d1575b600080fd5b61008a610165565b604051610097919061119c565b60405180910390f35b6100ba60048036038101906100b59190610d92565b61017a565b6040516100c89291906110b3565b60405180910390f35b6100d9610674565b6040516100e691906111d2565b60405180910390f35b6100f7610719565b60405161010491906111d2565b60405180910390f35b61011561072c565b60405161012291906111b7565b60405180910390f35b61014560048036038101906101409190610d51565b610732565b005b61014f610a2f565b60405161015c91906111b7565b60405180910390f35b600460009054906101000a900462ffffff1681565b60608060008410156101c1576040517f08c379a00000000000000000000000000000000000000000000000000000000081526004016101b89061117c565b60405180910390fd5b60008084866101d09190611343565b600080549050101561026d576001866101e9919061139d565b856101f49190611343565b6000805490501161023a576040517f08c379a00000000000000000000000000000000000000000000000000000000081526004016102319061115c565b60405180910390fd5b6000915060018661024b919061139d565b856102569190611343565b600080549050610266919061139d565b905061029a565b84866102799190611343565b600080549050610289919061139d565b9150848261029791906112ed565b90505b6000821480156102ae575060008054905081145b15610415576102bd8282610ad4565b600080805480602002602001604051908101604052809291908181526020016000905b8282101561040457838290600052602060002090600302016040518060600160405290816000820180546103139061146b565b80601f016020809104026020016040519081016040528092919081815260200182805461033f9061146b565b801561038c5780601f106103615761010080835404028352916020019161038c565b820191906000526020600020905b81548152906001019060200180831161036f57829003601f168201915b505050505081526020016001820160009054906101000a900473ffffffffffffffffffffffffffffffffffffffff1673ffffffffffffffffffffffffffffffffffffffff1673ffffffffffffffffffffffffffffffffffffffff168152602001600282015481525050815260200190600101906102e0565b50505050905093509350505061066d565b60008282610423919061139d565b905060008167ffffffffffffffff811115610467577f4e487b7100000000000000000000000000000000000000000000000000000000600052604160045260246000fd5b6040519080825280602002602001820160405280156104a057816020015b61048d610bfa565b8152602001906001900390816104855790505b50905060008490505b8381101561065857600081815481106104eb577f4e487b7100000000000000000000000000000000000000000000000000000000600052603260045260246000fd5b90600052602060002090600302016040518060600160405290816000820180546105149061146b565b80601f01602080910402602001604051908101604052809291908181526020018280546105409061146b565b801561058d5780601f106105625761010080835404028352916020019161058d565b820191906000526020600020905b81548152906001019060200180831161057057829003601f168201915b505050505081526020016001820160009054906101000a900473ffffffffffffffffffffffffffffffffffffffff1673ffffffffffffffffffffffffffffffffffffffff1673ffffffffffffffffffffffffffffffffffffffff168152602001600282015481525050828683610603919061139d565b8151811061063a577f4e487b7100000000000000000000000000000000000000000000000000000000600052603260045260246000fd5b60200260200101819052508080610650906114ce565b9150506104a9565b506106638484610ad4565b8195509550505050505b9250929050565b600060048054906101000a900473ffffffffffffffffffffffffffffffffffffffff1673ffffffffffffffffffffffffffffffffffffffff163373ffffffffffffffffffffffffffffffffffffffff1614610704576040517f08c379a00000000000000000000000000000000000000000000000000000000081526004016106fb9061113c565b60405180910390fd5b600160009054906101000a900460ff16905090565b600460039054906101000a900460ff1681565b60035481565b600060405180606001604052808381526020013373ffffffffffffffffffffffffffffffffffffffff16815260200142815250908060018154018082558091505060019003906000526020600020906003020160009091909190915060008201518160000190805190602001906107aa929190610c31565b5060208201518160010160006101000a81548173ffffffffffffffffffffffffffffffffffffffff021916908373ffffffffffffffffffffffffffffffffffffffff1602179055506040820151816002015550503373ffffffffffffffffffffffffffffffffffffffff166001600080549050610827919061139d565b7f205083703d541dd947543d02de3d1c5f1381b66349098b3634407db22f7ab4a3834260405161085892919061110c565b60405180910390a360035447101561089b577fe48da088e6721290116ea1fc3c2bd3a48b2cbb22948c1fa6a739103f66a030b960405160405180910390a1610a2c565b600460009054906101000a900462ffffff1662ffffff16600254426108c0919061139d565b116108f6577f52c459f9d9fcb15c3f27ee32b9602bdc8e8267c02e81ed2a44f7d8715607d04660405160405180910390a1610a2b565b600460039054906101000a900460ff1660ff16600160009054906101000a900460ff1660ff161015610a2a5760003373ffffffffffffffffffffffffffffffffffffffff1660035460405161094a90611075565b60006040518083038185875af1925050503d8060008114610987576040519150601f19603f3d011682016040523d82523d6000602084013e61098c565b606091505b505090508015610a28577f9c2270628a9b29d30ae96b6c4c14ed646ee134febdce38a5b77f2bde9cea2e20336003546040516109c992919061108a565b60405180910390a16065600160009054906101000a900460ff1660ff1644426109f291906112ed565b6109fc91906112ed565b610a069190611517565b600160006101000a81548160ff021916908360ff160217905550426002819055505b505b5b5b50565b60008080549050905090565b610ad181604051602401610a4f91906110ea565b6040516020818303038152906040527f41304fac000000000000000000000000000000000000000000000000000000007bffffffffffffffffffffffffffffffffffffffffffffffffffffffff19166020820180517bffffffffffffffffffffffffffffffffffffffffffffffffffffffff8381831617835250505050610bd1565b50565b606060008383610ae4919061139d565b67ffffffffffffffff811115610b23577f4e487b7100000000000000000000000000000000000000000000000000000000600052604160045260246000fd5b604051908082528060200260200182016040528015610b515781602001602082028036833780820191505090505b50905060008490505b83811015610bc65780828683610b70919061139d565b81518110610ba7577f4e487b7100000000000000000000000000000000000000000000000000000000600052603260045260246000fd5b6020026020010181815250508080610bbe906114ce565b915050610b5a565b508091505092915050565b60008151905060006a636f6e736f6c652e6c6f679050602083016000808483855afa5050505050565b604051806060016040528060608152602001600073ffffffffffffffffffffffffffffffffffffffff168152602001600081525090565b828054610c3d9061146b565b90600052602060002090601f016020900481019282610c5f5760008555610ca6565b82601f10610c7857805160ff1916838001178555610ca6565b82800160010185558215610ca6579182015b82811115610ca5578251825591602001919060010190610c8a565b5b509050610cb39190610cb7565b5090565b5b80821115610cd0576000816000905550600101610cb8565b5090565b6000610ce7610ce284611212565b6111ed565b905082815260208101848484011115610cff57600080fd5b610d0a848285611429565b509392505050565b600082601f830112610d2357600080fd5b8135610d33848260208601610cd4565b91505092915050565b600081359050610d4b816116b9565b92915050565b600060208284031215610d6357600080fd5b600082013567ffffffffffffffff811115610d7d57600080fd5b610d8984828501610d12565b91505092915050565b60008060408385031215610da557600080fd5b6000610db385828601610d3c565b9250506020610dc485828601610d3c565b9150509250929050565b6000610dda8383610fe9565b905092915050565b6000610dee8383611048565b60208301905092915050565b610e03816113d1565b82525050565b610e12816113d1565b82525050565b6000610e2382611263565b610e2d818561129e565b935083602082028501610e3f85611243565b8060005b85811015610e7b5784840389528151610e5c8582610dce565b9450610e6783611284565b925060208a01995050600181019050610e43565b50829750879550505050505092915050565b6000610e988261126e565b610ea281856112af565b9350610ead83611253565b8060005b83811015610ede578151610ec58882610de2565b9750610ed083611291565b925050600181019050610eb1565b5085935050505092915050565b6000610ef682611279565b610f0081856112cb565b9350610f10818560208601611438565b610f1981611604565b840191505092915050565b6000610f2f82611279565b610f3981856112dc565b9350610f49818560208601611438565b610f5281611604565b840191505092915050565b6000610f6a6023836112dc565b9150610f7582611615565b604082019050919050565b6000610f8d601c836112dc565b9150610f9882611664565b602082019050919050565b6000610fb06000836112c0565b9150610fbb8261168d565b600082019050919050565b6000610fd3601b836112dc565b9150610fde82611690565b602082019050919050565b600060608301600083015184820360008601526110068282610eeb565b915050602083015161101b6020860182610dfa565b50604083015161102e6040860182611048565b508091505092915050565b61104281611403565b82525050565b61105181611412565b82525050565b61106081611412565b82525050565b61106f8161141c565b82525050565b600061108082610fa3565b9150819050919050565b600060408201905061109f6000830185610e09565b6110ac6020830184611057565b9392505050565b600060408201905081810360008301526110cd8185610e8d565b905081810360208301526110e18184610e18565b90509392505050565b600060208201905081810360008301526111048184610f24565b905092915050565b600060408201905081810360008301526111268185610f24565b90506111356020830184611057565b9392505050565b6000602082019050818103600083015261115581610f5d565b9050919050565b6000602082019050818103600083015261117581610f80565b9050919050565b6000602082019050818103600083015261119581610fc6565b9050919050565b60006020820190506111b16000830184611039565b92915050565b60006020820190506111cc6000830184611057565b92915050565b60006020820190506111e76000830184611066565b92915050565b60006111f7611208565b9050611203828261149d565b919050565b6000604051905090565b600067ffffffffffffffff82111561122d5761122c6115d5565b5b61123682611604565b9050602081019050919050565b6000819050602082019050919050565b6000819050602082019050919050565b600081519050919050565b600081519050919050565b600081519050919050565b6000602082019050919050565b6000602082019050919050565b600082825260208201905092915050565b600082825260208201905092915050565b600081905092915050565b600082825260208201905092915050565b600082825260208201905092915050565b60006112f882611412565b915061130383611412565b9250827fffffffffffffffffffffffffffffffffffffffffffffffffffffffffffffffff0382111561133857611337611548565b5b828201905092915050565b600061134e82611412565b915061135983611412565b9250817fffffffffffffffffffffffffffffffffffffffffffffffffffffffffffffffff048311821515161561139257611391611548565b5b828202905092915050565b60006113a882611412565b91506113b383611412565b9250828210156113c6576113c5611548565b5b828203905092915050565b60006113dc826113e3565b9050919050565b600073ffffffffffffffffffffffffffffffffffffffff82169050919050565b600062ffffff82169050919050565b6000819050919050565b600060ff82169050919050565b82818337600083830152505050565b60005b8381101561145657808201518184015260208101905061143b565b83811115611465576000848401525b50505050565b6000600282049050600182168061148357607f821691505b60208210811415611497576114966115a6565b5b50919050565b6114a682611604565b810181811067ffffffffffffffff821117156114c5576114c46115d5565b5b80604052505050565b60006114d982611412565b91507fffffffffffffffffffffffffffffffffffffffffffffffffffffffffffffffff82141561150c5761150b611548565b5b600182019050919050565b600061152282611412565b915061152d83611412565b92508261153d5761153c611577565b5b828206905092915050565b7f4e487b7100000000000000000000000000000000000000000000000000000000600052601160045260246000fd5b7f4e487b7100000000000000000000000000000000000000000000000000000000600052601260045260246000fd5b7f4e487b7100000000000000000000000000000000000000000000000000000000600052602260045260246000fd5b7f4e487b7100000000000000000000000000000000000000000000000000000000600052604160045260246000fd5b6000601f19601f8301169050919050565b7f4f4e4c59204f574e45522043414e20534545205448452043555252454e54205360008201527f4545440000000000000000000000000000000000000000000000000000000000602082015250565b7f4e4f204d4f5245204752454554494e475320544f2052455455524e2100000000600082015250565b50565b7f706167654e756d2043414e4e4f54204245204e45474154495645210000000000600082015250565b6116c281611412565b81146116cd57600080fd5b5056fea2646970667358221220d9b421a0404a4ea377ad52c6011fffc4d641cb4c536c3095c1ab2783ff34de0664736f6c63430008040033",
  "linkReferences": {},
  "deployedLinkReferences": {}
}