{
  "_format": "hh-sol-artifact-1",
  "contractName": "GreetMe",
  "sourceName": "contracts/GreetMe.sol",
  "abi": [
    {
      "inputs": [],
      "stateMutability": "nonpayable",
      "type": "constructor"
    },
    {
      "anonymous": false,
      "inputs": [
        {
          "indexed": true,
          "internalType": "uint256",
          "name": "id",
          "type": "uint256"
        },
        {
          "indexed": true,
          "internalType": "address",
          "name": "greeter",
          "type": "address"
        },
        {
          "indexed": false,
          "internalType": "string",
          "name": "greeting",
          "type": "string"
        },
        {
          "indexed": false,
          "internalType": "uint256",
          "name": "timestamp",
          "type": "uint256"
        }
      ],
      "name": "Greet",
      "type": "event"
    },
    {
      "inputs": [
        {
          "internalType": "uint256",
          "name": "pageNum",
          "type": "uint256"
        },
        {
          "internalType": "uint256",
          "name": "pageSize",
          "type": "uint256"
        }
      ],
      "name": "getGreetings",
      "outputs": [
        {
          "internalType": "uint256[]",
          "name": "",
          "type": "uint256[]"
        },
        {
          "internalType": "string[]",
          "name": "",
          "type": "string[]"
        },
        {
          "internalType": "address[]",
          "name": "",
          "type": "address[]"
        },
        {
          "internalType": "uint256[]",
          "name": "",
          "type": "uint256[]"
        }
      ],
      "stateMutability": "view",
      "type": "function"
    },
    {
      "inputs": [],
      "name": "getNumOfGreetings",
      "outputs": [
        {
          "internalType": "uint256",
          "name": "",
          "type": "uint256"
        }
      ],
      "stateMutability": "view",
      "type": "function"
    },
    {
      "inputs": [
        {
          "internalType": "string",
          "name": "greetingMsg",
          "type": "string"
        }
      ],
      "name": "greet",
      "outputs": [],
      "stateMutability": "nonpayable",
      "type": "function"
    }
  ],
  "bytecode": "0x60806040523480156200001157600080fd5b506200005d6040518060400160405280600e81526020017f47726565744d65207265616479210000000000000000000000000000000000008152506200006360201b6200093d1760201c565b620001f7565b62000103816040516024016200007a919062000170565b6040516020818303038152906040527f41304fac000000000000000000000000000000000000000000000000000000007bffffffffffffffffffffffffffffffffffffffffffffffffffffffff19166020820180517bffffffffffffffffffffffffffffffffffffffffffffffffffffffff83818316178352505050506200010660201b60201c565b50565b60008151905060006a636f6e736f6c652e6c6f679050602083016000808483855afa5050505050565b60006200013c8262000194565b6200014881856200019f565b93506200015a818560208601620001b0565b6200016581620001e6565b840191505092915050565b600060208201905081810360008301526200018c81846200012f565b905092915050565b600081519050919050565b600082825260208201905092915050565b60005b83811015620001d0578082015181840152602081019050620001b3565b83811115620001e0576000848401525b50505050565b6000601f19601f8301169050919050565b61147a80620002076000396000f3fe608060405234801561001057600080fd5b50600436106100415760003560e01c80631145cdbe14610046578063ead710c414610079578063ef25559614610095575b600080fd5b610060600480360381019061005b9190610c5d565b6100b3565b6040516100709493929190610ef3565b60405180910390f35b610093600480360381019061008e9190610c1c565b610804565b005b61009d610931565b6040516100aa9190610fe6565b60405180910390f35b60608060608060008610156100fd576040517f08c379a00000000000000000000000000000000000000000000000000000000081526004016100f490610fc6565b60405180910390fd5b600080868861010c9190611185565b60008054905010156101a95760018861012591906111df565b876101309190611185565b60008054905011610176576040517f08c379a000000000000000000000000000000000000000000000000000000000815260040161016d90610fa6565b60405180910390fd5b6000915060018861018791906111df565b876101929190611185565b6000805490506101a291906111df565b90506101d6565b86886101b59190611185565b6000805490506101c591906111df565b915086826101d3919061112f565b90505b6000821480156101ea575060008054905081145b156103bb576101f982826109d6565b60006001600282805480602002602001604051908101604052809291908181526020016000905b828210156102cc57838290600052602060002001805461023f90611291565b80601f016020809104026020016040519081016040528092919081815260200182805461026b90611291565b80156102b85780601f1061028d576101008083540402835291602001916102b8565b820191906000526020600020905b81548152906001019060200180831161029b57829003601f168201915b505050505081526020019060010190610220565b5050505092508180548060200260200160405190810160405280929190818152602001828054801561035357602002820191906000526020600020905b8160009054906101000a900473ffffffffffffffffffffffffffffffffffffffff1673ffffffffffffffffffffffffffffffffffffffff1681526020019060010190808311610309575b50505050509150808054806020026020016040519081016040528092919081815260200182805480156103a557602002820191906000526020600020905b815481526020019060010190808311610391575b50505050509050955095509550955050506107fb565b600082826103c991906111df565b905060008167ffffffffffffffff81111561040d577f4e487b7100000000000000000000000000000000000000000000000000000000600052604160045260246000fd5b60405190808252806020026020018201604052801561044057816020015b606081526020019060019003908161042b5790505b50905060008267ffffffffffffffff811115610485577f4e487b7100000000000000000000000000000000000000000000000000000000600052604160045260246000fd5b6040519080825280602002602001820160405280156104b35781602001602082028036833780820191505090505b50905060008367ffffffffffffffff8111156104f8577f4e487b7100000000000000000000000000000000000000000000000000000000600052604160045260246000fd5b6040519080825280602002602001820160405280156105265781602001602082028036833780820191505090505b50905060008690505b858110156107de5760008181548110610571577f4e487b7100000000000000000000000000000000000000000000000000000000600052603260045260246000fd5b90600052602060002001805461058690611291565b80601f01602080910402602001604051908101604052809291908181526020018280546105b290611291565b80156105ff5780601f106105d4576101008083540402835291602001916105ff565b820191906000526020600020905b8154815290600101906020018083116105e257829003601f168201915b505050505084888361061191906111df565b81518110610648577f4e487b7100000000000000000000000000000000000000000000000000000000600052603260045260246000fd5b60200260200101819052506001818154811061068d577f4e487b7100000000000000000000000000000000000000000000000000000000600052603260045260246000fd5b9060005260206000200160009054906101000a900473ffffffffffffffffffffffffffffffffffffffff168388836106c591906111df565b815181106106fc577f4e487b7100000000000000000000000000000000000000000000000000000000600052603260045260246000fd5b602002602001019073ffffffffffffffffffffffffffffffffffffffff16908173ffffffffffffffffffffffffffffffffffffffff168152505060028181548110610770577f4e487b7100000000000000000000000000000000000000000000000000000000600052603260045260246000fd5b906000526020600020015482888361078891906111df565b815181106107bf577f4e487b7100000000000000000000000000000000000000000000000000000000600052603260045260246000fd5b60200260200101818152505080806107d6906112f4565b91505061052f565b506107e986866109d6565b83838399509950995099505050505050505b92959194509250565b60008190806001815401808255809150506001900390600052602060002001600090919091909150908051906020019061083f929190610afc565b506001339080600181540180825580915050600190039060005260206000200160009091909190916101000a81548173ffffffffffffffffffffffffffffffffffffffff021916908373ffffffffffffffffffffffffffffffffffffffff16021790555060024290806001815401808255809150506001900390600052602060002001600090919091909150553373ffffffffffffffffffffffffffffffffffffffff1660016000805490506108f591906111df565b7f205083703d541dd947543d02de3d1c5f1381b66349098b3634407db22f7ab4a38342604051610926929190610f76565b60405180910390a350565b60008080549050905090565b6109d3816040516024016109519190610f54565b6040516020818303038152906040527f41304fac000000000000000000000000000000000000000000000000000000007bffffffffffffffffffffffffffffffffffffffffffffffffffffffff19166020820180517bffffffffffffffffffffffffffffffffffffffffffffffffffffffff8381831617835250505050610ad3565b50565b6060600083836109e691906111df565b67ffffffffffffffff811115610a25577f4e487b7100000000000000000000000000000000000000000000000000000000600052604160045260246000fd5b604051908082528060200260200182016040528015610a535781602001602082028036833780820191505090505b50905060008490505b83811015610ac85780828683610a7291906111df565b81518110610aa9577f4e487b7100000000000000000000000000000000000000000000000000000000600052603260045260246000fd5b6020026020010181815250508080610ac0906112f4565b915050610a5c565b508091505092915050565b60008151905060006a636f6e736f6c652e6c6f679050602083016000808483855afa5050505050565b828054610b0890611291565b90600052602060002090601f016020900481019282610b2a5760008555610b71565b82601f10610b4357805160ff1916838001178555610b71565b82800160010185558215610b71579182015b82811115610b70578251825591602001919060010190610b55565b5b509050610b7e9190610b82565b5090565b5b80821115610b9b576000816000905550600101610b83565b5090565b6000610bb2610bad84611026565b611001565b905082815260208101848484011115610bca57600080fd5b610bd584828561124f565b509392505050565b600082601f830112610bee57600080fd5b8135610bfe848260208601610b9f565b91505092915050565b600081359050610c168161142d565b92915050565b600060208284031215610c2e57600080fd5b600082013567ffffffffffffffff811115610c4857600080fd5b610c5484828501610bdd565b91505092915050565b60008060408385031215610c7057600080fd5b6000610c7e85828601610c07565b9250506020610c8f85828601610c07565b9150509250929050565b6000610ca58383610cdd565b60208301905092915050565b6000610cbd8383610e1d565b905092915050565b6000610cd18383610ed5565b60208301905092915050565b610ce681611213565b82525050565b6000610cf782611087565b610d0181856110da565b9350610d0c83611057565b8060005b83811015610d3d578151610d248882610c99565b9750610d2f836110b3565b925050600181019050610d10565b5085935050505092915050565b6000610d5582611092565b610d5f81856110eb565b935083602082028501610d7185611067565b8060005b85811015610dad5784840389528151610d8e8582610cb1565b9450610d99836110c0565b925060208a01995050600181019050610d75565b50829750879550505050505092915050565b6000610dca8261109d565b610dd481856110fc565b9350610ddf83611077565b8060005b83811015610e10578151610df78882610cc5565b9750610e02836110cd565b925050600181019050610de3565b5085935050505092915050565b6000610e28826110a8565b610e32818561110d565b9350610e4281856020860161125e565b610e4b816113ca565b840191505092915050565b6000610e61826110a8565b610e6b818561111e565b9350610e7b81856020860161125e565b610e84816113ca565b840191505092915050565b6000610e9c601c8361111e565b9150610ea7826113db565b602082019050919050565b6000610ebf601b8361111e565b9150610eca82611404565b602082019050919050565b610ede81611245565b82525050565b610eed81611245565b82525050565b60006080820190508181036000830152610f0d8187610dbf565b90508181036020830152610f218186610d4a565b90508181036040830152610f358185610cec565b90508181036060830152610f498184610dbf565b905095945050505050565b60006020820190508181036000830152610f6e8184610e56565b905092915050565b60006040820190508181036000830152610f908185610e56565b9050610f9f6020830184610ee4565b9392505050565b60006020820190508181036000830152610fbf81610e8f565b9050919050565b60006020820190508181036000830152610fdf81610eb2565b9050919050565b6000602082019050610ffb6000830184610ee4565b92915050565b600061100b61101c565b905061101782826112c3565b919050565b6000604051905090565b600067ffffffffffffffff8211156110415761104061139b565b5b61104a826113ca565b9050602081019050919050565b6000819050602082019050919050565b6000819050602082019050919050565b6000819050602082019050919050565b600081519050919050565b600081519050919050565b600081519050919050565b600081519050919050565b6000602082019050919050565b6000602082019050919050565b6000602082019050919050565b600082825260208201905092915050565b600082825260208201905092915050565b600082825260208201905092915050565b600082825260208201905092915050565b600082825260208201905092915050565b600061113a82611245565b915061114583611245565b9250827fffffffffffffffffffffffffffffffffffffffffffffffffffffffffffffffff0382111561117a5761117961133d565b5b828201905092915050565b600061119082611245565b915061119b83611245565b9250817fffffffffffffffffffffffffffffffffffffffffffffffffffffffffffffffff04831182151516156111d4576111d361133d565b5b828202905092915050565b60006111ea82611245565b91506111f583611245565b9250828210156112085761120761133d565b5b828203905092915050565b600061121e82611225565b9050919050565b600073ffffffffffffffffffffffffffffffffffffffff82169050919050565b6000819050919050565b82818337600083830152505050565b60005b8381101561127c578082015181840152602081019050611261565b8381111561128b576000848401525b50505050565b600060028204905060018216806112a957607f821691505b602082108114156112bd576112bc61136c565b5b50919050565b6112cc826113ca565b810181811067ffffffffffffffff821117156112eb576112ea61139b565b5b80604052505050565b60006112ff82611245565b91507fffffffffffffffffffffffffffffffffffffffffffffffffffffffffffffffff8214156113325761133161133d565b5b600182019050919050565b7f4e487b7100000000000000000000000000000000000000000000000000000000600052601160045260246000fd5b7f4e487b7100000000000000000000000000000000000000000000000000000000600052602260045260246000fd5b7f4e487b7100000000000000000000000000000000000000000000000000000000600052604160045260246000fd5b6000601f19601f8301169050919050565b7f4e4f204d4f5245204752454554494e475320544f2052455455524e2100000000600082015250565b7f706167654e756d2043414e4e4f54204245204e45474154495645210000000000600082015250565b61143681611245565b811461144157600080fd5b5056fea26469706673582212208d9795c9e98ae05e7bc79618f4d7a1b8cc109e6b67d2ae820460175e967f6b4364736f6c63430008040033",
  "linkReferences": {},
  "deployedLinkReferences": {}
}