{
  "_format": "hh-sol-artifact-1",
  "contractName": "GreetMe",
  "sourceName": "contracts/GreetMe.sol",
  "abi": [
    {
      "inputs": [],
      "stateMutability": "nonpayable",
      "type": "constructor"
    },
    {
      "anonymous": false,
      "inputs": [
        {
          "indexed": true,
          "internalType": "uint256",
          "name": "id",
          "type": "uint256"
        },
        {
          "indexed": true,
          "internalType": "address",
          "name": "greeter",
          "type": "address"
        },
        {
          "indexed": false,
          "internalType": "string",
          "name": "greeting",
          "type": "string"
        },
        {
          "indexed": false,
          "internalType": "uint256",
          "name": "timestamp",
          "type": "uint256"
        }
      ],
      "name": "Greet",
      "type": "event"
    },
    {
      "inputs": [
        {
          "internalType": "uint256",
          "name": "_numOfMessagesNeeded",
          "type": "uint256"
        }
      ],
      "name": "getGreetings",
      "outputs": [
        {
          "internalType": "uint256[]",
          "name": "",
          "type": "uint256[]"
        },
        {
          "internalType": "string[]",
          "name": "",
          "type": "string[]"
        },
        {
          "internalType": "address[]",
          "name": "",
          "type": "address[]"
        },
        {
          "internalType": "uint256[]",
          "name": "",
          "type": "uint256[]"
        }
      ],
      "stateMutability": "view",
      "type": "function"
    },
    {
      "inputs": [],
      "name": "getNumOfGreetings",
      "outputs": [
        {
          "internalType": "uint256",
          "name": "",
          "type": "uint256"
        }
      ],
      "stateMutability": "view",
      "type": "function"
    },
    {
      "inputs": [
        {
          "internalType": "string",
          "name": "greetingMsg",
          "type": "string"
        }
      ],
      "name": "greet",
      "outputs": [],
      "stateMutability": "nonpayable",
      "type": "function"
    }
  ],
  "bytecode": "0x60806040523480156200001157600080fd5b506200005d6040518060400160405280600e81526020017f47726565744d65207265616479210000000000000000000000000000000000008152506200006360201b6200098e1760201c565b620001f7565b62000103816040516024016200007a919062000170565b6040516020818303038152906040527f41304fac000000000000000000000000000000000000000000000000000000007bffffffffffffffffffffffffffffffffffffffffffffffffffffffff19166020820180517bffffffffffffffffffffffffffffffffffffffffffffffffffffffff83818316178352505050506200010660201b60201c565b50565b60008151905060006a636f6e736f6c652e6c6f679050602083016000808483855afa5050505050565b60006200013c8262000194565b6200014881856200019f565b93506200015a818560208601620001b0565b6200016581620001e6565b840191505092915050565b600060208201905081810360008301526200018c81846200012f565b905092915050565b600081519050919050565b600082825260208201905092915050565b60005b83811015620001d0578082015181840152602081019050620001b3565b83811115620001e0576000848401525b50505050565b6000601f19601f8301169050919050565b61128980620002076000396000f3fe608060405234801561001057600080fd5b50600436106100415760003560e01c80630133799614610046578063ead710c414610079578063ef25559614610095575b600080fd5b610060600480360381019061005b9190610bb1565b6100b3565b6040516100709493929190610dee565b60405180910390f35b610093600480360381019061008e9190610b70565b610855565b005b61009d610982565b6040516100aa9190610ea1565b60405180910390f35b60608060608060006100c3610982565b905060008614806100d45750808610155b156103745760008167ffffffffffffffff81111561011b577f4e487b7100000000000000000000000000000000000000000000000000000000600052604160045260246000fd5b6040519080825280602002602001820160405280156101495781602001602082028036833780820191505090505b50905060005b828110156101b05780828281518110610191577f4e487b7100000000000000000000000000000000000000000000000000000000600052603260045260246000fd5b60200260200101818152505080806101a890611155565b91505061014f565b508060006001600282805480602002602001604051908101604052809291908181526020016000905b828210156102855783829060005260206000200180546101f8906110f2565b80601f0160208091040260200160405190810160405280929190818152602001828054610224906110f2565b80156102715780601f1061024657610100808354040283529160200191610271565b820191906000526020600020905b81548152906001019060200180831161025457829003601f168201915b5050505050815260200190600101906101d9565b5050505092508180548060200260200160405190810160405280929190818152602001828054801561030c57602002820191906000526020600020905b8160009054906101000a900473ffffffffffffffffffffffffffffffffffffffff1673ffffffffffffffffffffffffffffffffffffffff16815260200190600101908083116102c2575b505050505091508080548060200260200160405190810160405280929190818152602001828054801561035e57602002820191906000526020600020905b81548152602001906001019080831161034a575b505050505090509550955095509550505061084e565b60008167ffffffffffffffff8111156103b6577f4e487b7100000000000000000000000000000000000000000000000000000000600052604160045260246000fd5b6040519080825280602002602001820160405280156103e45781602001602082028036833780820191505090505b50905060008767ffffffffffffffff811115610429577f4e487b7100000000000000000000000000000000000000000000000000000000600052604160045260246000fd5b60405190808252806020026020018201604052801561045c57816020015b60608152602001906001900390816104475790505b50905060008867ffffffffffffffff8111156104a1577f4e487b7100000000000000000000000000000000000000000000000000000000600052604160045260246000fd5b6040519080825280602002602001820160405280156104cf5781602001602082028036833780820191505090505b50905060008967ffffffffffffffff811115610514577f4e487b7100000000000000000000000000000000000000000000000000000000600052604160045260246000fd5b6040519080825280602002602001820160405280156105425781602001602082028036833780820191505090505b5090506000808b876105549190611040565b90505b8681101561083a5780868381518110610599577f4e487b7100000000000000000000000000000000000000000000000000000000600052603260045260246000fd5b602002602001018181525050600081815481106105df577f4e487b7100000000000000000000000000000000000000000000000000000000600052603260045260246000fd5b9060005260206000200180546105f4906110f2565b80601f0160208091040260200160405190810160405280929190818152602001828054610620906110f2565b801561066d5780601f106106425761010080835404028352916020019161066d565b820191906000526020600020905b81548152906001019060200180831161065057829003601f168201915b50505050508583815181106106ab577f4e487b7100000000000000000000000000000000000000000000000000000000600052603260045260246000fd5b6020026020010181905250600181815481106106f0577f4e487b7100000000000000000000000000000000000000000000000000000000600052603260045260246000fd5b9060005260206000200160009054906101000a900473ffffffffffffffffffffffffffffffffffffffff16848381518110610754577f4e487b7100000000000000000000000000000000000000000000000000000000600052603260045260246000fd5b602002602001019073ffffffffffffffffffffffffffffffffffffffff16908173ffffffffffffffffffffffffffffffffffffffff1681525050600281815481106107c8577f4e487b7100000000000000000000000000000000000000000000000000000000600052603260045260246000fd5b906000526020600020015483838151811061080c577f4e487b7100000000000000000000000000000000000000000000000000000000600052603260045260246000fd5b6020026020010181815250506001826108259190610fea565b9150808061083290611155565b915050610557565b508484848499509950995099505050505050505b9193509193565b600081908060018154018082558091505060019003906000526020600020016000909190919091509080519060200190610890929190610a50565b506001339080600181540180825580915050600190039060005260206000200160009091909190916101000a81548173ffffffffffffffffffffffffffffffffffffffff021916908373ffffffffffffffffffffffffffffffffffffffff16021790555060024290806001815401808255809150506001900390600052602060002001600090919091909150553373ffffffffffffffffffffffffffffffffffffffff1660016000805490506109469190611040565b7f205083703d541dd947543d02de3d1c5f1381b66349098b3634407db22f7ab4a38342604051610977929190610e71565b60405180910390a350565b60008080549050905090565b610a24816040516024016109a29190610e4f565b6040516020818303038152906040527f41304fac000000000000000000000000000000000000000000000000000000007bffffffffffffffffffffffffffffffffffffffffffffffffffffffff19166020820180517bffffffffffffffffffffffffffffffffffffffffffffffffffffffff8381831617835250505050610a27565b50565b60008151905060006a636f6e736f6c652e6c6f679050602083016000808483855afa5050505050565b828054610a5c906110f2565b90600052602060002090601f016020900481019282610a7e5760008555610ac5565b82601f10610a9757805160ff1916838001178555610ac5565b82800160010185558215610ac5579182015b82811115610ac4578251825591602001919060010190610aa9565b5b509050610ad29190610ad6565b5090565b5b80821115610aef576000816000905550600101610ad7565b5090565b6000610b06610b0184610ee1565b610ebc565b905082815260208101848484011115610b1e57600080fd5b610b298482856110b0565b509392505050565b600082601f830112610b4257600080fd5b8135610b52848260208601610af3565b91505092915050565b600081359050610b6a8161123c565b92915050565b600060208284031215610b8257600080fd5b600082013567ffffffffffffffff811115610b9c57600080fd5b610ba884828501610b31565b91505092915050565b600060208284031215610bc357600080fd5b6000610bd184828501610b5b565b91505092915050565b6000610be68383610c1e565b60208301905092915050565b6000610bfe8383610d5e565b905092915050565b6000610c128383610dd0565b60208301905092915050565b610c2781611074565b82525050565b6000610c3882610f42565b610c428185610f95565b9350610c4d83610f12565b8060005b83811015610c7e578151610c658882610bda565b9750610c7083610f6e565b925050600181019050610c51565b5085935050505092915050565b6000610c9682610f4d565b610ca08185610fa6565b935083602082028501610cb285610f22565b8060005b85811015610cee5784840389528151610ccf8582610bf2565b9450610cda83610f7b565b925060208a01995050600181019050610cb6565b50829750879550505050505092915050565b6000610d0b82610f58565b610d158185610fb7565b9350610d2083610f32565b8060005b83811015610d51578151610d388882610c06565b9750610d4383610f88565b925050600181019050610d24565b5085935050505092915050565b6000610d6982610f63565b610d738185610fc8565b9350610d838185602086016110bf565b610d8c8161122b565b840191505092915050565b6000610da282610f63565b610dac8185610fd9565b9350610dbc8185602086016110bf565b610dc58161122b565b840191505092915050565b610dd9816110a6565b82525050565b610de8816110a6565b82525050565b60006080820190508181036000830152610e088187610d00565b90508181036020830152610e1c8186610c8b565b90508181036040830152610e308185610c2d565b90508181036060830152610e448184610d00565b905095945050505050565b60006020820190508181036000830152610e698184610d97565b905092915050565b60006040820190508181036000830152610e8b8185610d97565b9050610e9a6020830184610ddf565b9392505050565b6000602082019050610eb66000830184610ddf565b92915050565b6000610ec6610ed7565b9050610ed28282611124565b919050565b6000604051905090565b600067ffffffffffffffff821115610efc57610efb6111fc565b5b610f058261122b565b9050602081019050919050565b6000819050602082019050919050565b6000819050602082019050919050565b6000819050602082019050919050565b600081519050919050565b600081519050919050565b600081519050919050565b600081519050919050565b6000602082019050919050565b6000602082019050919050565b6000602082019050919050565b600082825260208201905092915050565b600082825260208201905092915050565b600082825260208201905092915050565b600082825260208201905092915050565b600082825260208201905092915050565b6000610ff5826110a6565b9150611000836110a6565b9250827fffffffffffffffffffffffffffffffffffffffffffffffffffffffffffffffff038211156110355761103461119e565b5b828201905092915050565b600061104b826110a6565b9150611056836110a6565b9250828210156110695761106861119e565b5b828203905092915050565b600061107f82611086565b9050919050565b600073ffffffffffffffffffffffffffffffffffffffff82169050919050565b6000819050919050565b82818337600083830152505050565b60005b838110156110dd5780820151818401526020810190506110c2565b838111156110ec576000848401525b50505050565b6000600282049050600182168061110a57607f821691505b6020821081141561111e5761111d6111cd565b5b50919050565b61112d8261122b565b810181811067ffffffffffffffff8211171561114c5761114b6111fc565b5b80604052505050565b6000611160826110a6565b91507fffffffffffffffffffffffffffffffffffffffffffffffffffffffffffffffff8214156111935761119261119e565b5b600182019050919050565b7f4e487b7100000000000000000000000000000000000000000000000000000000600052601160045260246000fd5b7f4e487b7100000000000000000000000000000000000000000000000000000000600052602260045260246000fd5b7f4e487b7100000000000000000000000000000000000000000000000000000000600052604160045260246000fd5b6000601f19601f8301169050919050565b611245816110a6565b811461125057600080fd5b5056fea264697066735822122035caa059ba45b87bb9e9126e75a6ca9d827e20d9556efdbed8b07e99cd8fc08d64736f6c63430008040033",
  "linkReferences": {},
  "deployedLinkReferences": {}
}